S00D000074657374322E7372656325
S11300000C9434000C9451000C9451000C94510045
S11300100C9451000C9451000C9451000C94510018
S11300200C9451000C9451000C9451000C94510008
S11300300C9451000C9451000C9451000C945100F8
S11300400C9451000C9451000C9451000C945100E8
S11300500C9451000C9451000C9451000C945100D8
S11300600C9451000C94510011241FBECFEFD8E022
S1130070DEBFCDBF11E0A0E0B1E0E2EEF1E002C0EE
S113008005900D92AE30B107D9F721E0AEE0B1E0B2
S113009001C01D92AE30B207E1F70E94E8000C9453
S11300A0EF000C9400009BB19F70282F207F922BAF
S11300B09BB99BB19E7F9BB99BB192609BB935E084
S11300C03A95F1F700009BB19D7F9BB9EFE1F3E016
S11300D03197F1F700C000002BB1F0E18F9FC00110
S11300E01124922F9F70892B8BB98BB182608BB9AD
S11300F035E03A95F1F700008BB18D7F8BB98FE332
S11301009FE10197F1F700C0000008958FEF8AB9CD
S11301108FE59AEE0197F1F700C0000082E090E0CD
S11301200E94530088E290E00E9453008CE090E02B
S11301300E94530086E090E00E94530081E090E02A
S11301400E9453008FE39FE10197F1F700C0000084
S11301500895FC0160E070E034C08BB18F70907F33
S1130160982B9BB98BB181608BB98BB182608BB9B1
S113017085E08A95F1F700008BB18D7F8BB98FE113
S113018093E00197F1F700C000004BB19C9180E12E
S1130190989F90011124942F9F70292B2BB99BB108
S11301A092609BB995E09A95F1F700009BB19D7F11
S11301B09BB98FE39FE10197F1F700C000006F5FE7
S11301C07F4FDF01A60FB71F9C919111C6CF0895F1
S11301D00E94860080E091E00E94A900FFCFF8947D
S10501E0FFCF4B
S11101E241726475696E6F20776F726B7300E3
S9030000FC
