:100000000C9461000C947E000C947E000C947E0095
:100010000C9486030C947E000C947E000C947E005D
:100020000C947E000C947E000C947E000C941603BD
:100030000C947E000C947E000C947E000C947E0048
:100040000C947E000C947E000C947E000C947E0038
:100050000C947E000C947E000C947E000C947E0028
:100060000C947E000C947E0008000000BE9224498F
:10007000123EABAAAA2ABECDCCCC4C3E00000080DA
:10008000BEABAAAAAA3E00000000BF000000803F4D
:100090000000000000084178D3BB4387D1133D190D
:1000A0000E3CC3BD4282AD2B3E68EC8276BED98F3A
:1000B000E1A93E4C80EFFFBE01C4FF7F3F0000007E
:1000C000000011241FBECFEFD8E0DEBFCDBF11E08E
:1000D000A0E0B1E0EEE2FDE002C005900D92AA3290
:1000E000B107D9F721E0AAE2B1E001C01D92AE321A
:1000F000B207E1F70E946F020C9495060C94000081
:10010000ECE7F0E0808180648083EAE7F0E08081C2
:1001100087688083089588E09DE3909389008093A9
:100120008800E1E8F0E0808188608083AFE6B0E09D
:100130008C9182608C93808185608083089588B1E2
:10014000846088B985B1846085B9ECE6F0E080818F
:1001500084608083E8E6F0E0808182608083E9E665
:10016000F0E08081886080837894089582E48093B1
:10017000B00087E08093B1008DE08093B3000895D4
:100180009BB19F70282F207F922B9BB99BB19E7FA4
:100190009BB99BB192609BB935E03A95F1F70000AD
:1001A0009BB19D7F9BB9EFE1F3E03197F1F700C080
:1001B00000002BB1F0E18F9FC0011124922F9F709E
:1001C000892B8BB98BB182608BB935E03A95F1F709
:1001D00000008BB18D7F8BB98FE39FE10197F1F721
:1001E00000C0000008958FEF8AB98FE59AEE01975D
:1001F000F1F700C0000082E090E00E94C00088E2B9
:1002000090E00E94C0008CE090E00E94C00086E078
:1002100090E00E94C00081E090E00E94C0008FE367
:100220009FE10197F1F700C00000089581E00E946E
:10023000C0008FE39FE10197F1F700C0000080E864
:100240000E94C0000895FC0160E070E034C08BB1F2
:100250008F70907F982B9BB98BB181608BB98BB1DC
:1002600082608BB985E08A95F1F700008BB18D7FB4
:100270008BB98FE193E00197F1F700C000004BB11B
:100280009C9180E1989F90011124942F9F70292BBD
:100290002BB99BB192609BB995E09A95F1F700005C
:1002A0009BB19D7F9BB98FE39FE10197F1F700C060
:1002B00000006F5F7F4FDF01A60FB71F9C91911168
:1002C000C6CF0895CF93DF93EA01811108C0603152
:1002D00030F4862F8F7080680E94C00009C0813082
:1002E00039F4603128F4862F8F70806C0E94C00032
:1002F000CE010E942301DF91CF910895ECE7F0E059
:100300009081907F8F70892B8083EAE7F0E0808175
:100310008064808380917A0086FDFCCF8091780094
:10032000909179000895BC0180E090E00E94D5048E
:1003300020E030EC4FE754E40E94340420E030E049
:1003400044E353E40E94B3050E94A604862F089557
:100350008F929F92AF92BF92CF92DF92EF92FF92D5
:10036000BC0180E090E00E94D50420E030E040EA4B
:1003700050E40E94B30520E030EC4FE754E40E94C3
:1003800034046B017C0120E030E44CE156E40E942F
:10039000B3054B015C01A701960160E070E080EAC3
:1003A00090E40E94C7039B01AC01C501B4010E9407
:1003B000340420E030E44CE156E40E9434040E940E
:1003C0006B052CE23BEB44E859E30E94B3052FE0B8
:1003D0003FEC4BE55BE30E94C8039B01AC0160E08E
:1003E00070E080E89FE30E94340423E333E948E8A7
:1003F00053E40E94C703FF90EF90DF90CF90BF902F
:10040000AF909F908F90089583E090E016C028E011
:1004100024B92FEF33ED40E3215030404040E1F765
:1004200000C0000014B82FEF39E648E121503040F9
:100430004040E1F700C000000197181619063CF390
:10044000089523B130E0082E02C0359527950A940F
:10045000E2F720FD12C0EFE9FFE03197F1F700C0AD
:10046000000023B130E0A90102C0559547958A9557
:10047000E2F740FD04C081E0089580E0089580E047
:1004800008950E942102882341F080912D0181115D
:1004900007C081E080932D01089510922D010895E9
:1004A00008958BB188608BB98BB18B7F8BB985B187
:1004B0008E7F85B9089585B1816085B98BB18B7FB9
:1004C0008BB98BB1877F8BB908958BB184608BB961
:1004D0008BB1877F8BB985B18E7F85B90895CF9316
:1004E000DF93CDB7DEB764970FB6F894DEBF0FBECB
:1004F000CDBF0E9480000E948B000E949F000E943E
:10050000F3000E94B60080E091E00E9423012FEFEB
:1005100087EA91E6215080409040E1F700C000005A
:1005200080EC0E94C0008DE091E00E94230180E0F9
:100530000E947E019A83898389819A810E94A80101
:100540002AE030E0AE014D5F5F4F0E945506AE01DC
:100550004D5F5F4F6EE082E00E9462010E945B028D
:100560002FEF83ED90E3215080409040E1F700C0F1
:1005700000000E9451022FEF83ED90E32150804054
:100580009040E1F700C000000E9465022FEF83ED6C
:1005900090E3215080409040E1F700C000000E94AD
:1005A00016013BC0F89481E00E947E019C8B8B8BEE
:1005B0008B899C890E94930180932A012FEF83EC01
:1005C00099E0215080409040E1F700C00000809108
:1005D0002A014AE050E0BE01655F7F4F90E00E9433
:1005E0005506CE010B960E9423012FEF83EC99E074
:1005F000215080409040E1F700C000000E941601A9
:1006000082E00E94410280932B01882331F081E037
:1006100080932C010E945B02789480912C018111BF
:10062000FCCF80912B018111F8CFBCCF1F920F928C
:100630000FB60F9211242F933F934F935F936F93B5
:100640007F938F939F93AF93BF93EF93FF93CF933A
:10065000DF93CDB7DEB72A97DEBFCDBF80912A01E9
:10066000815080932A01811118C00E9465020E9466
:1006700004028AE191E00E9423012FEF87EA91E6CC
:10068000215080409040E1F700C000000E94160118
:1006900010922C0110922B0120C00E941601809113
:1006A0002A014AE050E0BE016F5F7F4F90E00E9458
:1006B0005506CE0101960E9423012FEF81EE94E0B2
:1006C000215080409040E1F700C0000080E00E948F
:1006D0007E019A87898789859A852A960FB6F8942C
:1006E000DEBF0FBECDBFDF91CF91FF91EF91BF91E4
:1006F000AF919F918F917F916F915F914F913F91BA
:100700002F910F900FBE0F901F9018951F920F9270
:100710000FB60F9211242F933F934F935F936F93D4
:100720007F938F939F93AF93BF93EF93FF93CF9359
:10073000DF9300D0CDB7DEB70E9451020E941601B0
:1007400083E291E00E94230182E00E94410288231B
:10075000D9F30E945B0280E00E947E019A83898324
:1007600089819A810F900F90DF91CF91FF91EF9146
:10077000BF91AF919F918F917F916F915F914F91B9
:100780003F912F910F900FBE0F901F9018955058CA
:10079000BB27AA270E94DF030C9429050E941B0592
:1007A00038F00E94220520F039F49F3F19F426F416
:1007B0000C9418050EF4E095E7FB0C941205E92F54
:1007C0000E943A0558F3BA17620773078407950722
:1007D00020F079F4A6F50C945C050EF4E0950B2E50
:1007E000BA2FA02D0B01B90190010C01CA01A00183
:1007F0001124FF27591B99F0593F50F4503E68F1DE
:100800001A16F040A22F232F342F4427585FF3CF1E
:10081000469537952795A795F0405395C9F77EF4EF
:100820001F16BA0B620B730B840BBAF09150A1F038
:10083000FF0FBB1F661F771F881FC2F70EC0BA0FBE
:10084000621F731F841F48F4879577956795B79546
:10085000F7959E3F08F0B0CF9395880F08F0992741
:10086000EE0F9795879508950E9448040C942905EA
:100870000E94220558F00E941B0540F029F45F3FBA
:1008800029F00C94120551110C945D050C94180577
:100890000E943A0568F39923B1F3552391F3951B10
:1008A000550BBB27AA2762177307840738F09F5F91
:1008B0005F4F220F331F441FAA1FA9F335D00E2EFE
:1008C0003AF0E0E832D091505040E695001CCAF76B
:1008D0002BD0FE2F29D0660F771F881FBB1F26172E
:1008E00037074807AB07B0E809F0BB0B802DBF0105
:1008F000FF2793585F4F3AF09E3F510578F00C94D4
:1009000012050C945D055F3FE4F3983ED4F38695A1
:1009100077956795B795F7959F5FC9F7880F911DF4
:100920009695879597F90895E1E0660F771F881FE0
:10093000BB1F621773078407BA0720F0621B730B93
:10094000840BBA0BEE1F88F7E09508950E944205CC
:1009500088F09F5798F0B92F9927B751B0F0E1F080
:10096000660F771F881F991F1AF0BA95C9F714C030
:10097000B13091F00E945C05B1E008950C945C05E3
:10098000672F782F8827B85F39F0B93FCCF3869569
:1009900077956795B395D9F73EF4909580957095C6
:1009A00061957F4F8F4F9F4F0895E89409C097FB43
:1009B0003EF490958095709561957F4F8F4F9F4F36
:1009C0009923A9F0F92F96E9BB279395F69587957A
:1009D00077956795B795F111F8CFFAF4BB0F11F43D
:1009E00060FF1BC06F5F7F4F8F4F9F4F16C08823E4
:1009F00011F096E911C0772321F09EE8872F762F1A
:100A000005C0662371F096E8862F70E060E02AF05A
:100A10009A95660F771F881FDAF7880F9695879546
:100A200097F9089597F99F6780E870E060E008956E
:100A30009FEF80EC089500240A94161617061806F6
:100A40000906089500240A941216130614060506D2
:100A50000895092E0394000C11F4882352F0BB0F63
:100A600040F4BF2B11F460FF04C06F5F7F4F8F4FC6
:100A70009F4F089557FD9058440F551F59F05F3F01
:100A800071F04795880F97FB991F61F09F3F79F0B0
:100A900087950895121613061406551FF2CF469532
:100AA000F1DF08C0161617061806991FF1CF8695B4
:100AB0007105610508940895E894BB276627772798
:100AC000CB0197F9089516F00C9420060C941805A4
:100AD00068940C9412050E944205A8F39923C1F36F
:100AE000AEF3DF93CF931F930F93FF92C92FDD27B0
:100AF00088232AF02197660F771F881FDAF720E0F6
:100B000030E040E85FEB9FE3883920F0803E38F02A
:100B100021968F770E94C803E8E6F0E004C00E94A7
:100B2000C803E5E9F0E00E942E068B01BE01EC014E
:100B3000FB2E6F5771097595771F880B990B0E94D3
:100B4000D70428E132E741E35FE30E94C605AF2DF9
:100B50009801AE01FF900F911F91CF91DF910E94FC
:100B6000DF030C9429050E94C6050C9429050E94F8
:100B70001B0538F00E94220520F0952311F00C94FB
:100B800012050C94180511240C945D050E943A0579
:100B900070F3959FC1F3950F50E0551F629FF001D0
:100BA000729FBB27F00DB11D639FAA27F00DB11DE9
:100BB000AA1F649F6627B00DA11D661F829F222772
:100BC000B00DA11D621F739FB00DA11D621F839FF9
:100BD000A00D611D221F749F3327A00D611D231FCF
:100BE000849F600D211D822F762F6A2F11249F571D
:100BF00050409AF0F1F088234AF0EE0FFF1FBB1F20
:100C0000661F771F881F91505040A9F79E3F5105DE
:100C100080F00C9412050C945D055F3FE4F3983E60
:100C2000D4F3869577956795B795F795E7959F5F88
:100C3000C1F7FE2B880F911D9695879597F908951A
:100C40009F3F31F0915020F4879577956795B79540
:100C5000880F911D9695879597F90895DF93CF9307
:100C60001F930F93FF92EF92DF927B018C016894A8
:100C700006C0DA2EEF010E94C605FE01E894A59198
:100C80002591359145915591A6F3EF010E94DF031F
:100C9000FE019701A801DA9469F7DF90EF90FF90C9
:100CA0000F911F91CF91DF9108954532510520F4A6
:100CB000423010F00C946006FB011082CB010895C5
:100CC000BB274A3031F4992322F4BDE290958195F7
:100CD0009F4F0C946C06BB27FB015527AA27880F52
:100CE000991FAA1FA41710F0A41B83955051B9F7A0
:100CF000A05DAA3308F0A95DA193009779F7B1111F
:100D0000B1931192CB010C948506DC01FC01672F95
:100D100071917723E1F7329704C07C916D937083D2
:0E0D20006291AE17BF07C8F30895F894FFCF95
:100D2E0053657420706F746D657465720054656DD3
:100D3E0070657261747572653A0046696E697368A2
:0A0D4E0065640050617573652100B3
:00000001FF
