:100000000C9434000C9451000C9451000C948D020B
:100010000C9451000C9451000C9451000C9451001C
:100020000C9451000C9451000C9451000C94260235
:100030000C9451000C9451000C9451000C945100FC
:100040000C9451000C9451000C9451000C945100EC
:100050000C9451000C9451000C9451000C945100DC
:100060000C9451000C94510011241FBECFEFD8E026
:10007000DEBFCDBF11E0A0E0B1E0E8E3F9E002C0EF
:1000800005900D92AE31B107D9F721E0AEE1B1E0B4
:1000900001C01D92A232B207E1F70E949F010C94A9
:1000A0009A040C940000ECE7F0E080818064808387
:1000B000EAE7F0E0808187688083089588E09DE327
:1000C0009093890080938800E1E8F0E08081886067
:1000D0008083AFE6B0E08C9182608C9380818560F4
:1000E0008083089585B1846185B9EBE6F0E0808175
:1000F00080618083E8E6F0E0808181608083E9E6CA
:10010000F0E080818260808308959BB19F70282FEA
:10011000207F922B9BB99BB19E7F9BB99BB1926034
:100120009BB935E03A95F1F700009BB19D7F9BB9F3
:10013000EFE1F3E03197F1F700C000002BB1F0E1FF
:100140008F9FC0011124922F9F70892B8BB98BB187
:1001500082608BB935E03A95F1F700008BB18D7F65
:100160008BB98FE39FE10197F1F700C0000008957C
:100170008FEF8AB98FE59AEE0197F1F700C0000082
:1001800082E090E00E94850088E290E00E94850075
:100190008CE090E00E94850086E090E00E9485005F
:1001A00081E090E00E9485008FE39FE10197F1F7E5
:1001B00000C00000089581E00E9485008FE39FE168
:1001C0000197F1F700C0000080E80E9485000895C3
:1001D000FC0160E070E034C08BB18F70907F982B91
:1001E0009BB98BB181608BB98BB182608BB985E093
:1001F0008A95F1F700008BB18D7F8BB98FE193E089
:100200000197F1F700C000004BB19C9180E1989FED
:1002100090011124942F9F70292B2BB99BB19260D0
:100220009BB995E09A95F1F700009BB19D7F9BB932
:100230008FE39FE10197F1F700C000006F5F7F4FF0
:10024000DF01A60FB71F9C919111C6CF0895ECE76F
:10025000F0E09081907F8F70892B8083EAE7F0E057
:1002600080818064808380917A0086FDFCCF8091BC
:100270007800909179000895BC0180E090E00E94A0
:100280005F0320E030EC4FE754E40E94BE0220E020
:1002900030E044E353E40E94ED030E943003862FD4
:1002A000089523B130E0082E02C0359527950A94B1
:1002B000E2F720FD12C0EFE9FFE03197F1F700C04F
:1002C000000023B130E0A90102C0559547958A95F9
:1002D000E2F740FD04C081E0089580E0089580E0E9
:1002E00008950E945101882341F0809121018111DC
:1002F00007C081E0809321010895109221010895A3
:1003000008958BB188608BB98BB18B7F8BB985B128
:100310008E7F85B9089585B1816085B98BB18B7F5A
:100320008BB98BB1877F8BB908958BB184608BB902
:100330008BB1877F8BB985B18E7F85B90895CF93B7
:10034000DF93CDB7DEB72A970FB6F894DEBF0FBEA6
:10035000CDBF0E9453000E945E000E9472000E9466
:10036000B80080E091E00E94E8002FEF87EA91E674
:10037000215080409040E1F700C000000E948B01B6
:100380002FEF83ED90E3215080409040E1F700C0D3
:1003900000000E9481012FEF83ED90E32150804007
:1003A0009040E1F700C000000E9495012FEF83ED1F
:1003B00090E3215080409040E1F700C000000E948F
:1003C000DB003BC0F89481E00E9427019A8789876F
:1003D00089859A850E943C0180931E012FEF83EC52
:1003E00099E0215080409040E1F700C000008091EA
:1003F0001E014AE050E0BE016F5F7F4F90E00E9417
:100400005A04CE0101960E94E8002FEF83EC99E098
:10041000215080409040E1F700C000000E94DB00C6
:1004200082E00E94710180931F01882331F081E0F6
:10043000809320010E948B0178948091200181118A
:10044000FCCF80911F018111F8CFBCCF1F920F927A
:100450000FB60F9211242F933F934F935F936F9397
:100460007F938F939F93AF93BF93EF93FF93CF931C
:10047000DF93CDB7DEB72897DEBFCDBF80911E01D9
:10048000815080931E01811116C00E9495018DE05C
:1004900091E00E94E8002FEF87EA91E6215080402A
:1004A0009040E1F700C000000E94DB0010922001A4
:1004B00010921F0119C00E94DB0080911E014AE0CA
:1004C00050E0BE016F5F7F4F90E00E945A04CE0162
:1004D00001960E94E8002FEF81EE94E021508040C9
:1004E0009040E1F700C0000028960FB6F894DEBFF8
:1004F0000FBECDBFDF91CF91FF91EF91BF91AF9133
:100500009F918F917F916F915F914F913F912F912B
:100510000F900FBE0F901F9018951F920F920FB65D
:100520000F9211242F933F934F935F936F937F9379
:100530008F939F93AF93BF93EF93FF930E9481019B
:100540000E94DB0086E191E00E94E80082E00E94C8
:1005500071018823D9F30E948B01FF91EF91BF9124
:10056000AF919F918F917F916F915F914F913F914B
:100570002F910F900FBE0F901F9018950E94D202DE
:100580000C94B3030E94AC0358F00E94A50340F002
:1005900029F45F3F29F00C949C0351110C94E7035C
:1005A0000C94A2030E94C40368F39923B1F355236A
:1005B00091F3951B550BBB27AA2762177307840776
:1005C00038F09F5F5F4F220F331F441FAA1FA9F30C
:1005D00035D00E2E3AF0E0E832D091505040E695FA
:1005E000001CCAF72BD0FE2F29D0660F771F881F5B
:1005F000BB1F261737074807AB07B0E809F0BB0B4E
:10060000802DBF01FF2793585F4F3AF09E3F510561
:1006100078F00C949C030C94E7035F3FE4F3983E5E
:10062000D4F3869577956795B795F7959F5FC9F74A
:10063000880F911D9695879597F90895E1E0660FCB
:10064000771F881FBB1F621773078407BA0720F044
:10065000621B730B840BBA0BEE1F88F7E0950895AD
:100660000E94CC0388F09F5798F0B92F9927B75173
:10067000B0F0E1F0660F771F881F991F1AF0BA9546
:10068000C9F714C0B13091F00E94E603B1E00895BB
:100690000C94E603672F782F8827B85F39F0B93FAD
:1006A000CCF3869577956795B395D9F73EF49095F9
:1006B0008095709561957F4F8F4F9F4F0895E89477
:1006C00009C097FB3EF490958095709561957F4F9A
:1006D0008F4F9F4F9923A9F0F92F96E9BB27939548
:1006E000F695879577956795B795F111F8CFFAF458
:1006F000BB0F11F460FF1BC06F5F7F4F8F4F9F4F89
:1007000016C0882311F096E911C0772321F09EE8E6
:10071000872F762F05C0662371F096E8862F70E04C
:1007200060E02AF09A95660F771F881FDAF7880F26
:100730009695879597F9089597F99F6780E870E0F7
:1007400060E008959FEF80EC089500240A94161647
:10075000170618060906089500240A9412161306AF
:10076000140605060895092E0394000C11F488233D
:1007700052F0BB0F40F4BF2B11F460FF04C06F5F59
:100780007F4F8F4F9F4F089557FD9058440F551F2F
:1007900059F05F3F71F04795880F97FB991F61F003
:1007A0009F3F79F087950895121613061406551F7A
:1007B000F2CF4695F1DF08C0161617061806991FE6
:1007C000F1CF86957105610508940895E894BB27DB
:1007D00066277727CB0197F908950E9400040C94AF
:1007E000B3030E94A50338F00E94AC0320F09523C8
:1007F00011F00C949C030C94A20311240C94E703B5
:100800000E94C40370F3959FC1F3950F50E0551FEC
:10081000629FF001729FBB27F00DB11D639FAA2755
:10082000F00DB11DAA1F649F6627B00DA11D661FA4
:10083000829F2227B00DA11D621F739FB00DA11DC5
:10084000621F839FA00D611D221F749F3327A00D7F
:10085000611D231F849F600D211D822F762F6A2F1B
:1008600011249F5750409AF0F1F088234AF0EE0F80
:10087000FF1FBB1F661F771F881F91505040A9F7AD
:100880009E3F510580F00C949C030C94E7035F3F5E
:10089000E4F3983ED4F3869577956795B795F795E9
:1008A000E7959F5FC1F7FE2B880F911D9695879561
:1008B00097F908954532510520F4423010F00C9418
:1008C0006504FB011082CB010895BB274A3031F447
:1008D000992322F4BDE2909581959F4F0C94710469
:1008E000BB27FB015527AA27880F991FAA1FA4170A
:1008F00010F0A41B83955051B9F7A05DAA3308F0FE
:10090000A95DA193009779F7B111B1931192CB0131
:100910000C948A04DC01FC01672F71917723E1F7C5
:10092000329704C07C916D9370836291AE17BF07BC
:08093000C8F30895F894FFCF0D
:1009380053657420706F746D657465720046696ED6
:0E094800697368656400506175736521000075
:00000001FF
