S00D000074657374322E7372656325
S11300000C9434000C9451000C9451000C94510045
S11300100C9451000C9451000C9451000C94510018
S11300200C9451000C9451000C9451000C94510008
S11300300C9451000C9451000C9451000C945100F8
S11300400C9451000C9451000C9451000C945100E8
S11300500C9451000C9451000C9451000C945100D8
S11300600C9451000C94510011241FBECFEFD8E022
S1130070DEBFCDBF11E0A0E0B1E0ECE8F7E002C0E4
S113008005900D92AE30B107D9F721E0AEE0B1E0B2
S113009001C01D92A131B207E1F70E946F010C94D7
S11300A0C4030C940000ECE7F0E08081806480835A
S11300B0EAE7F0E0808187688083089588E09DE323
S11300C09093890080938800E1E8F0E08081886063
S11300D08083AFE6B0E08C9182608C9380818560F0
S11300E08083089585B1886185B9EBE6F0E080816D
S11300F080618083E8E6F0E0808181608083E9E6C6
S1130100F0E080818260808308959BB19F70282FE6
S1130110207F922B9BB99BB19E7F9BB99BB1926030
S11301209BB935E03A95F1F700009BB19D7F9BB9EF
S1130130EFE1F3E03197F1F700C000002BB1F0E1FB
S11301408F9FC0011124922F9F70892B8BB98BB183
S113015082608BB935E03A95F1F700008BB18D7F61
S11301608BB98FE39FE10197F1F700C00000089578
S11301708FEF8AB98FE59AEE0197F1F700C000007E
S113018082E090E00E94850088E290E00E94850071
S11301908CE090E00E94850086E090E00E9485005B
S11301A081E090E00E9485008FE39FE10197F1F7E1
S11301B000C00000089581E00E9485008FE39FE164
S11301C00197F1F700C0000080E80E9485000895BF
S11301D0FC0160E070E034C08BB18F70907F982B8D
S11301E09BB98BB181608BB98BB182608BB985E08F
S11301F08A95F1F700008BB18D7F8BB98FE193E085
S11302000197F1F700C000004BB19C9180E1989FE9
S113021090011124942F9F70292B2BB99BB19260CC
S11302209BB995E09A95F1F700009BB19D7F9BB92E
S11302308FE39FE10197F1F700C000006F5F7F4FEC
S1130240DF01A60FB71F9C919111C6CF0895ECE76B
S1130250F0E09081907F8F70892B8083EAE7F0E053
S113026080818064808380917A0086FDFCCF8091B8
S11302707800909179000895BC0180E090E00E949C
S1130280890220E030EC4FE754E40E94E80120E0CA
S113029030E044E353E40E9417030E945A02862F7D
S11302A008958BB188608BB98BB18B7F8BB985B185
S11302B08E7F85B9089585B1816085B98BB18B7FB7
S11302C08BB98BB1877F8BB908958BB184608BB95F
S11302D08BB1877F8BB985B18E7F85B90895CF9314
S11302E0DF93CDB7DEB72A970FB6F894DEBF0FBE03
S11302F0CDBF0E9453000E945E000E9472000E94C3
S1130300B80080E091E00E94E8002FEF87EA91E6D0
S1130310215080409040E1F700C000000E945B0142
S11303202FEF83ED90E3215080409040E1F700C02F
S113033000000E9451012FEF83ED90E32150804093
S11303409040E1F700C000000E9465012FEF83EDAB
S113035090E3215080409040E1F700C000000E94EB
S1130360DB002DC081E00E9427019A878987898557
S11303709A850E943C0180930E012FEF89E698E153
S1130380215080409040E1F700C0000080910E01B0
S11303904AE050E0BE016F5F7F4F90E00E9484030B
S11303A0CE0101960E94E8002FEF89E698E12150E2
S11303B080409040E1F700C000000E94DB00809183
S11303C010018111FCCF80910F018111F8CFCACFA8
S11303D00E94FC010C94DD020E94D60258F00E9497
S11303E0CF0240F029F45F3F29F00C94C60251116A
S11303F00C9411030C94CC020E94EE0268F399232E
S1130400B1F3552391F3951B550BBB27AA2762170C
S11304107307840738F09F5F5F4F220F331F441F19
S1130420AA1FA9F335D00E2E3AF0E0E832D091504D
S11304305040E695001CCAF72BD0FE2F29D0660F3A
S1130440771F881FBB1F261737074807AB07B0E87D
S113045009F0BB0B802DBF01FF2793585F4F3AF083
S11304609E3F510578F00C94C6020C9411035F3F33
S1130470E4F3983ED4F3869577956795B795F79509
S11304809F5FC9F7880F911D9695879597F90895F1
S1130490E1E0660F771F881FBB1F6217730784078D
S11304A0BA0720F0621B730B840BBA0BEE1F88F79C
S11304B0E09508950E94F60288F09F5798F0B92FAE
S11304C09927B751B0F0E1F0660F771F881F991F85
S11304D01AF0BA95C9F714C0B13091F00E94100314
S11304E0B1E008950C941003672F782F8827B85F24
S11304F039F0B93FCCF3869577956795B395D9F7DD
S11305003EF490958095709561957F4F8F4F9F4FE6
S11305100895E89409C097FB3EF4909580957095F2
S113052061957F4F8F4F9F4F9923A9F0F92F96E93B
S1130530BB279395F695879577956795B795F111B0
S1130540F8CFFAF4BB0F11F460FF1BC06F5F7F4F4D
S11305508F4F9F4F16C0882311F096E911C077235F
S113056021F09EE8872F762F05C0662371F096E868
S1130570862F70E060E02AF09A95660F771F881F37
S1130580DAF7880F9695879597F9089597F99F67F5
S113059080E870E060E008959FEF80EC0895002407
S11305A00A941616170618060906089500240A94D4
S11305B012161306140605060895092E0394000C5A
S11305C011F4882352F0BB0F40F4BF2B11F460FFE9
S11305D004C06F5F7F4F8F4F9F4F089557FD905812
S11305E0440F551F59F05F3F71F04795880F97FBF3
S11305F0991F61F09F3F79F08795089512161306AD
S11306001406551FF2CF4695F1DF08C016161706DB
S11306101806991FF1CF8695710561050894089510
S1130620E894BB2766277727CB0197F908950E94A2
S11306302A030C94DD020E94CF0238F00E94D602F5
S113064020F0952311F00C94C6020C94CC021124D2
S11306500C9411030E94EE0270F3959FC1F3950F61
S113066050E0551F629FF001729FBB27F00DB11D32
S1130670639FAA27F00DB11DAA1F649F6627B00DC2
S1130680A11D661F829F2227B00DA11D621F739FAB
S1130690B00DA11D621F839FA00D611D221F749FB9
S11306A03327A00D611D231F849F600D211D822F00
S11306B0762F6A2F11249F5750409AF0F1F0882327
S11306C04AF0EE0FFF1FBB1F661F771F881F915054
S11306D05040A9F79E3F510580F00C94C6020C943B
S11306E011035F3FE4F3983ED4F3869577956795BD
S11306F0B795F795E7959F5FC1F7FE2B880F911D7E
S11307009695879597F908954532510520F442301E
S113071010F00C948F03FB011082CB010895BB27CA
S11307204A3031F4992322F4BDE2909581959F4F8C
S11307300C949B03BB27FB015527AA27880F991FFD
S1130740AA1FA41710F0A41B83955051B9F7A05DFC
S1130750AA3308F0A95DA193009779F7B111B19379
S11307601192CB010C94B403DC01FC01672F71914D
S11307707723E1F7329704C07C916D937083629183
S10F0780AE17BF07C8F30895F894FFCF2C
S111078C41726475696E6F20776F726B730033
S9030000FC
