:100000000C9434000C943E000C943E000C943E0082
:100010000C943E000C943E000C943E000C943E0068
:100020000C943E000C943E000C943E000C943E0058
:100030000C943E000C943E000C943E000C943E0048
:100040000C943E000C943E000C943E000C943E0038
:100050000C943E000C943E000C943E000C943E0028
:100060000C943E000C943E0011241FBECFEFD8E04C
:10007000DEBFCDBF0E946E000C9476000C94000091
:1000800084E084B982E484BD85E085BD8DE090E0A4
:1000900090938B0080938A000895CF93DF93C3E001
:1000A000D0E016C00E9440002FEF83ED90E3215076
:1000B00080409040E1F700C0000014B82FEF89E6BF
:1000C00098E1215080409040E1F700C00000219766
:1000D0001C161D063CF3DF91CF91089581E084B991
:1000E00085B1816085B90E944D00FFCFF894FFCFA4
:00000001FF
