:100000000C9434000C943E000C943E000C943E0082
:100010000C943E000C943E000C943E000C943E0068
:100020000C943E000C943E000C943E000C943E0058
:100030000C943E000C943E000C943E000C943E0048
:100040000C943E000C943E000C943E000C943E0038
:100050000C943E000C943E000C943E000C943E0028
:100060000C943E000C943E0011241FBECFEFD8E04C
:10007000DEBFCDBF0E9469000C946E000C9400009E
:1000800088E084B982E48093B00087E08093B10077
:100090008DE08093B300089583E090E016C028E0DF
:1000A00024B92FEF33ED40E3215030404040E1F7D9
:1000B00000C0000014B82FEF39E648E1215030406D
:1000C0004040E1F700C000000197181619063CF304
:1000D00008950E9440000E944C00FFCFF894FFCF8B
:00000001FF
