:100000000C9434000C9451000C9451000C94980200
:100010000C9451000C9451000C9451000C9451001C
:100020000C9451000C9451000C9451000C945B0200
:100030000C9451000C9451000C9451000C945100FC
:100040000C9451000C9451000C9451000C945100EC
:100050000C9451000C9451000C9451000C945100DC
:100060000C9451000C94510011241FBECFEFD8E026
:10007000DEBFCDBF11E0A0E0B1E0E8EEF8E002C0E5
:1000800005900D92AE32B107D9F721E0AEE2B1E0B2
:1000900001C01D92A233B207E1F70E94F7010C9450
:1000A00072040C940000ECE7F0E0808180648083AF
:1000B000EAE7F0E0808187688083089587E690E032
:1000C0009093C5008093C40088E18093C100089597
:1000D00088E09DE39093890080938800E1E8F0E058
:1000E000808188608083AFE6B0E08C9182608C93E1
:1000F000808185608083089584E084B982E484BD32
:1001000085E085BD8DE090E090938B0080938A0020
:10011000089585B1886185B9EBE6F0E08081806162
:100120008083E8E6F0E0808181608083E9E6F0E0AA
:1001300080818260808308959BB19F70282F207FEB
:10014000922B9BB99BB19E7F9BB99BB192609BB94F
:1001500035E03A95F1F700009BB19D7F9BB9EFE147
:10016000F3E03197F1F700C000002BB1F0E18F9F71
:10017000C0011124922F9F70892B8BB98BB18260A3
:100180008BB935E03A95F1F700008BB18D7F8BB9D3
:100190008FE39FE10197F1F700C0000008958FE51C
:1001A0009AEE0197F1F700C0000082E00E949C00E7
:1001B00088E20E949C008CE00E949C0086E00E94E5
:1001C0009C0081E00E949C008FE39FE10197F1F782
:1001D00000C0000008959091C00095FFFCCF80936F
:1001E000C60008950F931F93CF938C01C0E003C006
:1001F0000E94EB00CF5FF801EC0FF11D80818111AF
:10020000F7CFCF911F910F910895ECE7F0E0908127
:10021000907F8F70892B8083EAE7F0E08081806493
:10022000808380917A0086FDFCCF80917800909148
:10023000790008950F931F93CF93DF93EC019C01F6
:100240003695279536952795ABE7B4E10E94630470
:10025000FC01F695E7959F01ADECBCEC0E946304B0
:10026000AC01569547955695479556954795CA01C1
:10027000880F991F440F551F440F551F440F551FDA
:10028000480F591FCF01841B950BAC01182F9E01FD
:100290000E946304FC01F695E795F695E795F695BF
:1002A000E7959F010E94630496958795969587959B
:1002B000969587959C01220F331F880F991F880FF1
:1002C000991F880F991F820F931F0E2F081BCF01B4
:1002D000880F991FEE0FFF1FEE0FFF1FEE0FFF1F7E
:1002E000E80FF91FCE1B442321F080E3840F0E9406
:1002F000EB00111102C0002321F080E3800F0E9467
:10030000EB0080E38C0F0E94EB0080E091E00E9404
:10031000F2008FE39CE90197F1F700C00000DF9144
:10032000CF911F910F910895BC0180E090E00E9451
:10033000680320E030EC4FE754E40E94C70220E05D
:1003400030E044E353E40E94F6030E943903862F11
:10035000089523B130E0082E02C0359527950A9400
:10036000E2F720FD12C0EFE9FFE03197F1F700C09E
:10037000000023B130E0A90102C0559547958A9548
:10038000E2F740FD04C081E0089580E0089580E038
:1003900008950E94A901882341F0809131018111C3
:1003A00007C081E0809331010895109231010895D2
:1003B00008958BB188608BB98BB18B7F8BB985B178
:1003C0008E7F85B9089585B1816085B98BB18B7FAA
:1003D0008BB98BB1877F8BB908958BB184608BB952
:1003E0008BB1877F8BB985B18E7F85B90895CF9307
:1003F000DF9300D0CDB7DEB70E9453000E945E00AD
:100400000E9468000E947C000E94CF000E94890028
:100410008AB18FEF8AB984B1816084B90E94E30107
:100420002FEF89E698E1215080409040E1F700C02D
:1004300000000E94D9012FEF89E698E12150804009
:100440009040E1F700C000000E94ED012FEF89E627
:1004500098E1215080409040E1F700C0000022C0A8
:10046000F89481E00E9405019A83898389819A81A9
:100470000E94940180932E0182E091E00E94F2009C
:1004800080912E0190E00E941A0183E00E94C90130
:1004900080932F01882331F081E0809330010E9406
:1004A000E3017894809130018111FCCF80912F017C
:1004B0008111F8CFD5CF1F920F920FB60F92112452
:1004C0002F933F934F935F936F937F938F939F935C
:1004D000AF93BF93EF93FF9380912E018150809350
:1004E0002E0181110BC080E191E00E94F2000E9478
:1004F000ED011092300110922F0109C08AE191E0C4
:100500000E94F20080912E0190E00E941A01FF915A
:10051000EF91BF91AF919F918F917F916F915F917B
:100520004F913F912F910F900FBE0F901F901895F4
:100530001F920F920FB60F9211242F933F934F9358
:100540005F936F937F938F939F93AF93BF93EF933B
:10055000FF9386E291E00E94F2000E94D90183E0BD
:100560000E94C9018823D9F30E94E301FF91EF9112
:10057000BF91AF919F918F917F916F915F914F91BB
:100580003F912F910F900FBE0F901F9018950E94D2
:10059000DB020C94BC030E94B50358F00E94AE032A
:1005A00040F029F45F3F29F00C94A50351110C94FD
:1005B000F0030C94AB030E94CD0368F39923B1F3CD
:1005C000552391F3951B550BBB27AA276217730779
:1005D000840738F09F5F5F4F220F331F441FAA1F0D
:1005E000A9F335D00E2E3AF0E0E832D091505040C9
:1005F000E695001CCAF72BD0FE2F29D0660F771F77
:10060000881FBB1F261737074807AB07B0E809F05C
:10061000BB0B802DBF01FF2793585F4F3AF09E3FE1
:10062000510578F00C94A5030C94F0035F3FE4F3BC
:10063000983ED4F3869577956795B795F7959F5F24
:10064000C9F7880F911D9695879597F90895E1E070
:10065000660F771F881FBB1F621773078407BA07CF
:1006600020F0621B730B840BBA0BEE1F88F7E0952A
:1006700008950E94D50388F09F5798F0B92F9927C5
:10068000B751B0F0E1F0660F771F881F991F1AF07D
:10069000BA95C9F714C0B13091F00E94EF03B1E0F0
:1006A00008950C94EF03672F782F8827B85F39F0EF
:1006B000B93FCCF3869577956795B395D9F73EF416
:1006C00090958095709561957F4F8F4F9F4F0895BE
:1006D000E89409C097FB3EF49095809570956195DC
:1006E0007F4F8F4F9F4F9923A9F0F92F96E9BB2792
:1006F0009395F695879577956795B795F111F8CF0E
:10070000FAF4BB0F11F460FF1BC06F5F7F4F8F4F78
:100710009F4F16C0882311F096E911C0772321F06E
:100720009EE8872F762F05C0662371F096E8862F06
:1007300070E060E02AF09A95660F771F881FDAF75D
:10074000880F9695879597F9089597F99F6780E8A0
:1007500070E060E008959FEF80EC089500240A9413
:100760001616170618060906089500240A9412168C
:100770001306140605060895092E0394000C11F4BF
:10078000882352F0BB0F40F4BF2B11F460FF04C06C
:100790006F5F7F4F8F4F9F4F089557FD9058440FC5
:1007A000551F59F05F3F71F04795880F97FB991FD0
:1007B00061F09F3F79F0879508951216130614068D
:1007C000551FF2CF4695F1DF08C01616170618061A
:1007D000991FF1CF86957105610508940895E894F5
:1007E000BB2766277727CB0197F908950E94090454
:1007F0000C94BC030E94AE0338F00E94B50320F0B5
:10080000952311F00C94A5030C94AB0311240C94C4
:10081000F0030E94CD0370F3959FC1F3950F50E054
:10082000551F629FF001729FBB27F00DB11D639FA2
:10083000AA27F00DB11DAA1F649F6627B00DA11D48
:10084000661F829F2227B00DA11D621F739FB00DEE
:10085000A11D621F839FA00D611D221F749F33275E
:10086000A00D611D231F849F600D211D822F762FF7
:100870006A2F11249F5750409AF0F1F088234AF0D4
:10088000EE0FFF1FBB1F661F771F881F9150504040
:10089000A9F79E3F510580F00C94A5030C94F0033A
:1008A0005F3FE4F3983ED4F3869577956795B795C7
:1008B000F795E7959F5FC1F7FE2B880F911D9695E1
:1008C000879597F90895A29FB001B39FC001A39F98
:1008D000700D811D1124911DB29F700D811D112479
:0808E000911D0895F894FFCF6B
:1008E8000D005365742074696D652061743A2000A9
:1008F800416C6C20646F6E65210054696D65206CD5
:0E0908006566743A20005041555345210000A9
:00000001FF
