:100000000C9461000C947E000C947E000C947E0095
:100010000C947E000C947E000C947E000C947E0068
:100020000C947E000C947E000C947E000C945B0279
:100030000C947E000C947E000C947E000C947E0048
:100040000C947E000C947E000C947E000C947E0038
:100050000C947E000C947E000C947E000C947E0028
:100060000C947E000C947E0008000000BE9224498F
:10007000123EABAAAA2ABECDCCCC4C3E00000080DA
:10008000BEABAAAAAA3E00000000BF000000803F4D
:100090000000000000084178D3BB4387D1133D190D
:1000A0000E3CC3BD4282AD2B3E68EC8276BED98F3A
:1000B000E1A93E4C80EFFFBE01C4FF7F3F0000007E
:1000C000000011241FBECFEFD8E0DEBFCDBF11E08E
:1000D000A0E0B1E0E0E6FAE002C005900D92A233A4
:1000E000B107D9F721E0A2E3B1E001C01D92A3332B
:1000F000B207E1F70E94F2010C942E050C94000067
:10010000ECE7F0E0808180648083EAE7F0E08081C2
:1001100087688083089587E690E09093C500809378
:10012000C40088E18093C100089588E09DE3909326
:10013000890080938800E1E8F0E080818860808316
:10014000AFE6B0E08C9182608C9380818560808383
:10015000789408959091C00095FFFCCF8093C600DD
:1001600008950F931F93CF938C01C0E003C00E94AA
:10017000AA00CF5FF801EC0FF11D80818111F7CF4C
:10018000CF911F910F910895ECE7F0E09081907F5F
:100190008F70892B8083EAE7F0E080818064808320
:1001A00080917A0086FDFCCF809178009091790053
:1001B00008950F931F93CF93DF938C019C01369585
:1001C000279536952795ABE7B4E10E941F05AC0152
:1001D000569547959A01ADECBCEC0E941F0596958B
:1001E000879596958795969587959C01220F331F45
:1001F000880F991F880F991F880F991F820F931FCF
:100200009A01281B390BC901805D0E94AA00980140
:10021000ADECBCEC0E941F05EC01D695C795D695B8
:10022000C795D695C7959E010E941F0596958795FF
:1002300096958795969587959C01220F331F880F79
:10024000991F880F991F880F991F820F931F9E0176
:10025000281B390BC901805D0E94AA00CE01880FBE
:10026000991FCC0FDD1FCC0FDD1FCC0FDD1FC80F7A
:10027000D91FC8018C1B9D0B805D0E94AA0083E2E0
:1002800091E00E94B1003FEF80E792E03150804062
:100290009040E1F700C00000DF91CF911F910F91D6
:1002A0000895BC0180E090E00E949F0320E030ECC4
:1002B0004FE754E40E94FE0220E030E044E353E4C0
:1002C0000E947D0408958F929F92AF92BF92CF9229
:1002D000DF92EF92FF92BC0180E090E00E949F03CA
:1002E00020E030E040EA50E40E947D0420E030EC61
:1002F0004FE754E40E94FE026B017C0120E030E4F1
:100300004CE156E40E947D044B015C01A70196017B
:1003100060E070E080EA90E40E9491029B01AC01F1
:10032000C501B4010E94FE0220E030E44CE156E435
:100330000E94FE020E9435042CE23BEB44E859E3A4
:100340000E947D042FE03FEC4BE55BE30E949202AC
:100350009B01AC0160E070E080E89FE30E94FE0238
:1003600023E333E948E853E40E949102FF90EF90C1
:10037000DF90CF90BF90AF909F908F90089523B162
:1003800030E0082E02C0359527950A94E2F720FD4B
:1003900012C0EFE9FFE03197F1F700C0000023B190
:1003A00030E0A90102C0559547958A95E2F740FDD6
:1003B00004C081E0089580E0089580E0089585B14B
:1003C0000E94BF01882359F080913201811109C038
:1003D00083B1816083B981E08093320108951092E6
:1003E00032010895CF93DF9300D000D0CDB7DEB7B0
:1003F0000E9480000E948B000E94950025B181E040
:1004000090E0AC0102C0440F551F2A95E2F79A0113
:1004100045B102C0880F991F4A95E2F7822B932BB2
:1004200095B1892B85B98AB18FEF8AB984B1816082
:1004300084B98BB18C608BB985B1816085B980E05E
:100440000E94C4009C838B838B819C810E946301EA
:100450006B017C0181E091E00E94B100C701B6010F
:100460000E947003CB010E94D90081E00E94C40069
:100470009A83898389819A810E9451016B017C0151
:100480008FE091E00E94B100C701B6010E947003A5
:10049000CB010E94D9008DE191E00E94B1005FEF95
:1004A00083ED90E3515080409040E1F700C00000A0
:1004B0000E94DF01C4CF1F920F920FB60F9211243A
:1004C0002F933F934F935F936F937F938F939F935C
:1004D000AF93BF93EF93FF9380910001811104C00C
:1004E00084EB8093000103C081508093000185E27A
:1004F00091E00E94B1008091000190E00E94D9003B
:10050000FF91EF91BF91AF919F918F917F916F91EB
:100510005F914F913F912F910F900FBE0F901F90C1
:1005200018955058BB27AA270E94A9020C94F303E0
:100530000E94E50338F00E94EC0320F039F49F3F5D
:1005400019F426F40C94E2030EF4E095E7FB0C9406
:10055000DC03E92F0E94040458F3BA1762077307FB
:100560008407950720F079F4A6F50C9426040EF480
:10057000E0950B2EBA2FA02D0B01B90190010C01B3
:10058000CA01A0011124FF27591B99F0593F50F4CB
:10059000503E68F11A16F040A22F232F342F442723
:1005A000585FF3CF469537952795A795F04053951B
:1005B000C9F77EF41F16BA0B620B730B840BBAF0EB
:1005C0009150A1F0FF0FBB1F661F771F881FC2F756
:1005D0000EC0BA0F621F731F841F48F4879577956A
:1005E0006795B795F7959E3F08F0B0CF9395880F24
:1005F00008F09927EE0F9795879508950E941203AA
:100600000C94F3030E94EC0358F00E94E50340F0C1
:1006100029F45F3F29F00C94DC0351110C9427045A
:100620000C94E2030E94040468F39923B1F3552368
:1006300091F3951B550BBB27AA27621773078407F5
:1006400038F09F5F5F4F220F331F441FAA1FA9F38B
:1006500035D00E2E3AF0E0E832D091505040E69579
:10066000001CCAF72BD0FE2F29D0660F771F881FDA
:10067000BB1F261737074807AB07B0E809F0BB0BCD
:10068000802DBF01FF2793585F4F3AF09E3F5105E1
:1006900078F00C94DC030C9427045F3FE4F3983E5D
:1006A000D4F3869577956795B795F7959F5FC9F7CA
:1006B000880F911D9695879597F90895E1E0660F4B
:1006C000771F881FBB1F621773078407BA0720F0C4
:1006D000621B730B840BBA0BEE1F88F7E09508952D
:1006E0000E940C0488F09F5798F0B92F9927B751B2
:1006F000B0F0E1F0660F771F881F991F1AF0BA95C6
:10070000C9F714C0B13091F00E942604B1E00895F9
:100710000C942604672F782F8827B85F39F0B93FEB
:10072000CCF3869577956795B395D9F73EF4909578
:100730008095709561957F4F8F4F9F4F0895E894F6
:1007400009C097FB3EF490958095709561957F4F19
:100750008F4F9F4F9923A9F0F92F96E9BB279395C7
:10076000F695879577956795B795F111F8CFFAF4D7
:10077000BB0F11F460FF1BC06F5F7F4F8F4F9F4F08
:1007800016C0882311F096E911C0772321F09EE866
:10079000872F762F05C0662371F096E8862F70E0CC
:1007A00060E02AF09A95660F771F881FDAF7880FA6
:1007B0009695879597F9089597F99F6780E870E077
:1007C00060E008959FEF80EC089500240A941616C7
:1007D000170618060906089500240A94121613062F
:1007E000140605060895092E0394000C11F48823BD
:1007F00052F0BB0F40F4BF2B11F460FF04C06F5FD9
:100800007F4F8F4F9F4F089557FD9058440F551FAE
:1008100059F05F3F71F04795880F97FB991F61F082
:100820009F3F79F087950895121613061406551FF9
:10083000F2CF4695F1DF08C0161617061806991F65
:10084000F1CF86957105610508940895E894BB275A
:1008500066277727CB0197F9089516F00C94EA04E0
:100860000C94E20368940C94DC030E940C04A8F33B
:100870009923C1F3AEF3DF93CF931F930F93FF92AE
:10088000C92FDD2788232AF02197660F771F881F3D
:10089000DAF720E030E040E85FEB9FE3883920F0B2
:1008A000803E38F021968F770E949202E8E6F0E0D1
:1008B00004C00E949202E5E9F0E00E94F8048B0176
:1008C000BE01EC01FB2E6F5771097595771F880BE0
:1008D000990B0E94A10328E132E741E35FE30E9404
:1008E0009004AF2D9801AE01FF900F911F91CF9111
:1008F000DF910E94A9020C94F3030E9490040C94CF
:10090000F3030E94E50338F00E94EC0320F09523E6
:1009100011F00C94DC030C94E20311240C942704D2
:100920000E94040470F3959FC1F3950F50E0551F8A
:10093000629FF001729FBB27F00DB11D639FAA2734
:10094000F00DB11DAA1F649F6627B00DA11D661F83
:10095000829F2227B00DA11D621F739FB00DA11DA4
:10096000621F839FA00D611D221F749F3327A00D5E
:10097000611D231F849F600D211D822F762F6A2FFA
:1009800011249F5750409AF0F1F088234AF0EE0F5F
:10099000FF1FBB1F661F771F881F91505040A9F78C
:1009A0009E3F510580F00C94DC030C9427045F3FBC
:1009B000E4F3983ED4F3869577956795B795F795C8
:1009C000E7959F5FC1F7FE2B880F911D9695879540
:1009D00097F908959F3F31F0915020F487957795CE
:1009E0006795B795880F911D9695879597F9089506
:1009F000DF93CF931F930F93FF92EF92DF927B01D0
:100A00008C01689406C0DA2EEF010E949004FE016A
:100A1000E894A5912591359145915591A6F3EF0163
:100A20000E94A902FE019701A801DA9469F7DF90FC
:100A3000EF90FF900F911F91CF91DF910895A29FAA
:100A4000B001B39FC001A39F700D811D1124911DA2
:100A5000B29F700D811D1124911D0895F894FFCF50
:100A6000B454656D70657261747572653A20005397
:100A700065742074696D652061743A20002D2D2DF8
:100A80002D2D2D0D0054696D65206C6566743A201E
:020A9000000064
:00000001FF
