S019000070726F736A656B7466696C5F6D696B726F2E73726563DD
S11300000C9434000C9451000C9451000C94E402B0
S11300100C9451000C9451000C9451000C94510018
S11300200C9451000C9451000C9451000C94A702B0
S11300300C9451000C9451000C9451000C945100F8
S11300400C9451000C9451000C9451000C945100E8
S11300500C9451000C9451000C9451000C945100D8
S11300600C9451000C94510011241FBECFEFD8E022
S1130070DEBFCDBF11E0A0E0B1E0E0E8F9E002C0EE
S113008005900D92A433B107D9F721E0A4E3B1E0C0
S113009001C01D92A833B207E1F70E9436020C9406
S11300A0BE040C940000ECE7F0E08081806480835F
S11300B0EAE7F0E0808187688083089587E690E02E
S11300C09093C5008093C40088E18093C100089593
S11300D088E09DE39093890080938800E1E8F0E054
S11300E0808188608083AFE6B0E08C9182608C93DD
S11300F0808185608083089584E084B982E484BD2E
S113010085E085BD8DE090E090938B0080938A001C
S1130110089585B1886185B9EBE6F0E0808180615E
S11301208083E8E6F0E0808181608083E9E6F0E0A6
S113013080818260808308959BB19F70282F207FE7
S1130140922B9BB99BB19E7F9BB99BB192609BB94B
S113015035E03A95F1F700009BB19D7F9BB9EFE143
S1130160F3E03197F1F700C000002BB1F0E18F9F6D
S1130170C0011124922F9F70892B8BB98BB182609F
S11301808BB935E03A95F1F700008BB18D7F8BB9CF
S11301908FE39FE10197F1F700C0000008958FE518
S11301A09AEE0197F1F700C0000082E00E949C00E3
S11301B088E20E949C008CE00E949C0086E00E94E1
S11301C09C0081E00E949C008FE39FE10197F1F77E
S11301D000C000000895FC0160E070E034C08BB101
S11301E08F70907F982B9BB98BB181608BB98BB149
S11301F082608BB985E08A95F1F700008BB18D7F21
S11302008BB98FE193E00197F1F700C000004BB187
S11302109C9180E1989F90011124942F9F70292B29
S11302202BB99BB192609BB995E09A95F1F70000C8
S11302309BB19D7F9BB98FE39FE10197F1F700C0CC
S113024000006F5F7F4FDF01A60FB71F9C919111D4
S1130250C6CF08959091C00095FFFCCF8093C6004F
S113026008950F931F93CF938C01C0E003C00E94A5
S11302702A01CF5FF801EC0FF11D80818111F7CFC6
S1130280CF911F910F910895ECE7F0E09081907F5A
S11302908F70892B8083EAE7F0E08081806480831B
S11302A080917A0086FDFCCF80917800909179004E
S11302B008950F931F93CF93DF93EC019C01369520
S11302C0279536952795ABE7B4E10E94AF04FC016E
S11302D0F695E7959F01ADECBCEC0E94AF04AC0130
S11302E0569547955695479556954795CA01880F53
S11302F0991F440F551F440F551F440F551F480F96
S1130300591FCF01841B950BAC01182F9E010E942D
S1130310AF04FC01F695E795F695E795F695E79514
S11303209F010E94AF04969587959695879596951B
S113033087959C01220F331F880F991F880F991FDF
S1130340880F991F820F931F0E2F081BCF01880F50
S1130350991FEE0FFF1FEE0FFF1FEE0FFF1FE80F99
S1130360F91FCE1B442321F080E3840F0E942A014D
S1130370111102C0002321F080E3800F0E942A01A2
S113038080E38C0F0E942A0180E091E00E943101F9
S11303908FE39CE90197F1F700C00000DF91CF9152
S11303A01F910F910895BC0180E090E00E94B40376
S11303B020E030EC4FE754E40E94130320E030E0E7
S11303C044E353E40E9442040E948503862F089567
S11303D023B130E0082E02C0359527950A94E2F740
S11303E020FD12C0EFE9FFE03197F1F700C00000F3
S11303F023B130E0A90102C0559547958A95E2F7EB
S113040040FD04C081E0089580E0089580E00895EF
S11304100E94E801882341F080913701811107C0CF
S113042081E080933701089510923701089508956B
S11304308BB188608BB98BB18B7F8BB985B18E7F83
S113044085B9089585B1816085B98BB18B7F8BB9EE
S11304508BB1877F8BB908958BB184608BB98BB1D5
S1130460877F8BB985B18E7F85B90895CF93DF934C
S113047000D0CDB7DEB70E9453000E945E000E94F8
S113048068000E947C000E94CF000E94890082E0E4
S113049091E00E94EB002FEF87EA91E62150804023
S11304A09040E1F700C000008AB18FEF8AB984B1AF
S11304B0816084B90E9422022FEF89E698E12150DD
S11304C080409040E1F700C000000E9418022FEF26
S11304D089E698E1215080409040E1F700C0000097
S11304E00E942C022FEF89E698E121508040904031
S11304F0E1F700C0000022C0F89481E00E944401AA
S11305009A83898389819A810E94D30180933401DB
S113051088E091E00E9431018091340190E00E94D2
S1130520590183E00E94080280933501882331F049
S113053081E0809336010E942202789480913601F2
S11305408111FCCF809135018111F8CFD5CF1F9255
S11305500F920FB60F9211242F933F934F935F93F3
S11305606F937F938F939F93AF93BF93EF93FF9377
S11305708091340181508093340181110BC086E154
S113058091E00E9431010E942C02109236011092D7
S1130590350109C080E291E00E943101809134016B
S11305A090E00E945901FF91EF91BF91AF919F910B
S11305B08F917F916F915F914F913F912F910F9008
S11305C00FBE0F901F9018951F920F920FB60F92A7
S11305D011242F933F934F935F936F937F938F9344
S11305E09F93AF93BF93EF93FF938CE291E00E94AC
S11305F031010E94180283E00E9408028823D9F383
S11306000E942202FF91EF91BF91AF919F918F9130
S11306107F916F915F914F913F912F910F900FBEFA
S11306200F901F9018950E9427030C9408040E94B1
S1130630010458F00E94FA0340F029F45F3F29F0C6
S11306400C94F10351110C943C040C94F7030E9494
S1130650190468F39923B1F3552391F3951B550BB2
S1130660BB27AA2762177307840738F09F5F5F4F81
S1130670220F331F441FAA1FA9F335D00E2E3AF0C0
S1130680E0E832D091505040E695001CCAF72BD0D8
S1130690FE2F29D0660F771F881FBB1F2617370729
S11306A04807AB07B0E809F0BB0B802DBF01FF275B
S11306B093585F4F3AF09E3F510578F00C94F10344
S11306C00C943C045F3FE4F3983ED4F3869577950D
S11306D06795B795F7959F5FC9F7880F911D969514
S11306E0879597F90895E1E0660F771F881FBB1F70
S11306F0621773078407BA0720F0621B730B840B1D
S1130700BA0BEE1F88F7E09508950E94210488F043
S11307109F5798F0B92F9927B751B0F0E1F0660FC1
S1130720771F881F991F1AF0BA95C9F714C0B13002
S113073091F00E943B04B1E008950C943B04672FB0
S1130740782F8827B85F39F0B93FCCF38695779531
S11307506795B395D9F73EF490958095709561951A
S11307607F4F8F4F9F4F0895E89409C097FB3EF445
S113077090958095709561957F4F8F4F9F4F9923EA
S1130780A9F0F92F96E9BB279395F6958795779568
S11307906795B795F111F8CFFAF4BB0F11F460FF28
S11307A01BC06F5F7F4F8F4F9F4F16C0882311F080
S11307B096E911C0772321F09EE8872F762F05C094
S11307C0662371F096E8862F70E060E02AF09A952F
S11307D0660F771F881FDAF7880F9695879597F924
S11307E0089597F99F6780E870E060E008959FEFAF
S11307F080EC089500240A941616170618060906B4
S1130800089500240A941216130614060506089582
S1130810092E0394000C11F4882352F0BB0F40F40A
S1130820BF2B11F460FF04C06F5F7F4F8F4F9F4F4A
S1130830089557FD9058440F551F59F05F3F71F0CC
S11308404795880F97FB991F61F09F3F79F0879533
S11308500895121613061406551FF2CF4695F1DFBC
S113086008C0161617061806991FF1CF869571054C
S1130870610508940895E894BB2766277727CB0180
S113088097F908950E9455040C9408040E94FA03F1
S113089038F00E94010420F0952311F00C94F10328
S11308A00C94F70311240C943C040E94190470F373
S11308B0959FC1F3950F50E0551F629FF001729F01
S11308C0BB27F00DB11D639FAA27F00DB11DAA1F10
S11308D0649F6627B00DA11D661F829F2227B00D5D
S11308E0A11D621F739FB00DA11D621F839FA00DE8
S11308F0611D221F749F3327A00D611D231F849F38
S1130900600D211D822F762F6A2F11249F5750408E
S11309109AF0F1F088234AF0EE0FFF1FBB1F661F09
S1130920771F881F91505040A9F79E3F510580F0D2
S11309300C94F1030C943C045F3FE4F3983ED4F32D
S1130940869577956795B795F795E7959F5FC1F776
S1130950FE2B880F911D9695879597F90895A29F70
S1130960B001B39FC001A39F700D811D1124911D7F
S1130970B29F700D811D1124911D0895F894FFCF2D
S11309800D0048656C6C6F005365742074696D6567
S11309902061743A2000416C6C20646F6E65210004
S11309A054696D65206C6566743A20005041555356
S10709B045210000D9
S9030000FC
