S019000070726F736A656B7466696C5F6D696B726F2E73726563DD
S11300000C9434000C9451000C9451000C94510045
S11300100C94B8020C9451000C9451000C945100AF
S11300200C9451000C9451000C9451000C947902DE
S11300300C9451000C9451000C9451000C945100F8
S11300400C9451000C9451000C9451000C945100E8
S11300500C9451000C9451000C9451000C945100D8
S11300600C9451000C94510011241FBECFEFD8E022
S1130070DEBFCDBF11E0A0E0B1E0E8E2F9E002C0EC
S113008005900D92AE32B107D9F721E0AEE2B1E0AE
S113009001C01D92A233B207E1F70E9415020C942D
S11300A092040C940000ECE7F0E08081806480838B
S11300B0EAE7F0E0808187688083089587E690E02E
S11300C09093C5008093C40088E18093C100089593
S11300D088E09DE39093890080938800E1E8F0E054
S11300E0808188608083AFE6B0E08C9182608C93DD
S11300F0808185608083089582E48093B00087E0E6
S11301008093B1008DE08093B300089588B184603A
S113011088B985B1846085B9ECE6F0E080818460BB
S11301208083E8E6F0E0808182608083E9E6F0E0A5
S1130130808188608083789408959BB19F70282F74
S1130140207F922B9BB99BB19E7F9BB99BB1926000
S11301509BB935E03A95F1F700009BB19D7F9BB9BF
S1130160EFE1F3E03197F1F700C000002BB1F0E1CB
S11301708F9FC0011124922F9F70892B8BB98BB153
S113018082608BB935E03A95F1F700008BB18D7F31
S11301908BB98FE39FE10197F1F700C00000089548
S11301A08FE59AEE0197F1F700C0000082E00E940B
S11301B09D0088E20E949D008CE00E949D0086E0E4
S11301C00E949D0081E00E949D008FE39FE10197C2
S11301D0F1F700C0000008959091C00095FFFCCF96
S11301E08093C60008950F931F93CF938C01C0E0B2
S11301F003C00E94EC00CF5FF801EC0FF11D808179
S11302008111F7CFCF911F910F910895ECE7F0E0A2
S11302109081907F8F70892B8083EAE7F0E0808162
S11302208064808380917A0086FDFCCF8091780081
S11302309091790008950F931F93CF93DF93EC016E
S11302409C013695279536952795ABE7B4E10E9436
S11302508304FC01F695E7959F01ADECBCEC0E948C
S11302608304AC0156954795569547955695479501
S1130270CA01880F991F440F551F440F551F440F7F
S1130280551F480F591FCF01841B950BAC01182F24
S11302909E010E948304FC01F695E795F695E79587
S11302A0F695E7959F010E94830496958795969508
S11302B08795969587959C01220F331F880F991F68
S11302C0880F991F880F991F820F931F0E2F081BE9
S11302D0CF01880F991FEE0FFF1FEE0FFF1FEE0FC8
S11302E0FF1FE80FF91FCE1B442321F080E3840F86
S11302F00E94EC00111102C0002321F080E3800F62
S11303000E94EC0080E38C0F0E94EC0080E091E0FE
S11303100E94F3008FE39CE90197F1F700C000000D
S1130320DF91CF911F910F910895BC0180E090E07F
S11303300E94880320E030EC4FE754E40E94E70277
S113034020E030E044E353E40E9416040E94590381
S1130350862F089583E090E016C028E024B92FEF9B
S113036033ED40E3215030404040E1F700C000004D
S113037014B82FEF39E648E1215030404040E1F70E
S113038000C000000197181619063CF3089523B124
S113039030E0082E02C0359527950A94E2F720FD37
S11303A012C0EFE9FFE03197F1F700C0000023B17C
S11303B030E0A90102C0559547958A95E2F740FDC2
S11303C004C081E0089580E0089580E008950E94CB
S11303D0C701882341F080913101811107C081E078
S11303E080933101089510923101089508958BB1DD
S11303F088608BB98BB18B7F8BB985B18E7F85B9C2
S1130400089585B1816085B98BB18B7F8BB98BB130
S1130410877F8BB908958BB184608BB98BB1877F4B
S11304208BB985B18E7F85B90895CF93DF9300D0C2
S1130430CDB7DEB70E9453000E945E000E946800A0
S11304400E947C000E94D0000E9486008AB18FEF37
S11304508AB984B1816084B90E9401022FEF89E6D0
S113046098E1215080409040E1F700C000000E94D4
S1130470F7012FEF89E698E1215080409040E1F7A1
S113048000C000000E940B022FEF89E698E1215082
S113049080409040E1F700C0000022C0F89481E061
S11304A00E9406019A83898389819A810E94950119
S11304B080932E0182E091E00E94F30080912E014E
S11304C090E00E941B0182E00E94E70180932F01CB
S11304D0882331F081E0809330010E9401027894F6
S11304E0809130018111FCCF80912F018111F8CFCF
S11304F0D5CF1F920F920FB60F9211242F933F93D3
S11305004F935F936F937F938F939F93AF93BF9317
S1130510EF93FF9380912E01815080932E018111DE
S11305200DC080E191E00E94F3000E940B020E9442
S1130530AA011092300110922F0109C08AE191E0C2
S11305400E94F30080912E0190E00E941B01FF9114
S1130550EF91BF91AF919F918F917F916F915F9137
S11305604F913F912F910F900FBE0F901F901895B0
S11305701F920F920FB60F9211242F933F934F9314
S11305805F936F937F938F939F93AF93BF93EF93F7
S1130590FF9386E291E00E94F3000E94F70182E05B
S11305A00E94E7018823D9F30E940102FF91EF9191
S11305B0BF91AF919F918F917F916F915F914F9177
S11305C03F912F910F900FBE0F901F9018950E948E
S11305D0FB020C94DC030E94D50358F00E94CE0366
S11305E040F029F45F3F29F00C94C50351110C9499
S11305F010040C94CB030E94ED0368F39923B1F328
S1130600552391F3951B550BBB27AA276217730734
S1130610840738F09F5F5F4F220F331F441FAA1FC8
S1130620A9F335D00E2E3AF0E0E832D09150504084
S1130630E695001CCAF72BD0FE2F29D0660F771F32
S1130640881FBB1F261737074807AB07B0E809F018
S1130650BB0B802DBF01FF2793585F4F3AF09E3F9D
S1130660510578F00C94C5030C9410045F3FE4F337
S1130670983ED4F3869577956795B795F7959F5FE0
S1130680C9F7880F911D9695879597F90895E1E02C
S1130690660F771F881FBB1F621773078407BA078B
S11306A020F0621B730B840BBA0BEE1F88F7E095E6
S11306B008950E94F50388F09F5798F0B92F992761
S11306C0B751B0F0E1F0660F771F881F991F1AF039
S11306D0BA95C9F714C0B13091F00E940F04B1E08B
S11306E008950C940F04672F782F8827B85F39F08A
S11306F0B93FCCF3869577956795B395D9F73EF4D2
S113070090958095709561957F4F8F4F9F4F089579
S1130710E89409C097FB3EF4909580957095619597
S11307207F4F8F4F9F4F9923A9F0F92F96E9BB274D
S11307309395F695879577956795B795F111F8CFC9
S1130740FAF4BB0F11F460FF1BC06F5F7F4F8F4F34
S11307509F4F16C0882311F096E911C0772321F02A
S11307609EE8872F762F05C0662371F096E8862FC2
S113077070E060E02AF09A95660F771F881FDAF719
S1130780880F9695879597F9089597F99F6780E85C
S113079070E060E008959FEF80EC089500240A94CF
S11307A01616170618060906089500240A94121648
S11307B01306140605060895092E0394000C11F47B
S11307C0882352F0BB0F40F4BF2B11F460FF04C028
S11307D06F5F7F4F8F4F9F4F089557FD9058440F81
S11307E0551F59F05F3F71F04795880F97FB991F8C
S11307F061F09F3F79F08795089512161306140649
S1130800551FF2CF4695F1DF08C0161617061806D5
S1130810991FF1CF86957105610508940895E894B0
S1130820BB2766277727CB0197F908950E942904EF
S11308300C94DC030E94CE0338F00E94D50320F010
S1130840952311F00C94C5030C94CB0311240C9440
S113085010040E94ED0370F3959FC1F3950F50E0CF
S1130860551F629FF001729FBB27F00DB11D639F5E
S1130870AA27F00DB11DAA1F649F6627B00DA11D04
S1130880661F829F2227B00DA11D621F739FB00DAA
S1130890A11D621F839FA00D611D221F749F33271A
S11308A0A00D611D231F849F600D211D822F762FB3
S11308B06A2F11249F5750409AF0F1F088234AF090
S11308C0EE0FFF1FBB1F661F771F881F91505040FC
S11308D0A9F79E3F510580F00C94C5030C941004B5
S11308E05F3FE4F3983ED4F3869577956795B79583
S11308F0F795E7959F5FC1F7FE2B880F911D96959D
S1130900879597F90895A29FB001B39FC001A39F53
S1130910700D811D1124911DB29F700D811D112434
S10B0920911D0895F894FFCF26
S11309280D005365742074696D652061743A200064
S1130938416C6C20646F6E65210054696D65206C90
S11109486566743A2000504155534521000065
S9030000FC
