:100000000C9461000C9476000C9476000C947600AD
:100010000C9476000C9476000C9476000C94760088
:100020000C9476000C9476000C9476000C94FD01F0
:100030000C9476000C9476000C9476000C94760068
:100040000C9476000C9476000C9476000C94760058
:100050000C9476000C9476000C9476000C94760048
:100060000C9476000C94760008000000BE9224499F
:10007000123EABAAAA2ABECDCCCC4C3E00000080DA
:10008000BEABAAAAAA3E00000000BF000000803F4D
:100090000000000000084178D3BB4387D1133D190D
:1000A0000E3CC3BD4282AD2B3E68EC8276BED98F3A
:1000B000E1A93E4C80EFFFBE01C4FF7F3F0000007E
:1000C000000011241FBECFEFD8E0DEBFCDBF11E08E
:1000D000A0E0B1E0E4EAF9E002C005900D92A2339D
:1000E000B107D9F70E94B7010C94D0040C9400001A
:1000F000ECE7F0E0808180648083EAE7F0E08081D3
:1001000087688083089587E690E09093C500809388
:10011000C40088E18093C100089588E09DE3909336
:10012000890080938800E1E8F0E080818860808326
:10013000AFE6B0E08C9182608C9380818560808393
:10014000789408959091C00095FFFCCF8093C600ED
:1001500008950F931F93CF938C01C0E003C00E94BA
:10016000A200CF5FF801EC0FF11D80818111F7CF64
:10017000CF911F910F910895ECE7F0E09081907F6F
:100180008F70892B8083EAE7F0E080818064808330
:1001900080917A0086FDFCCF809178009091790063
:1001A00008950F931F93CF93DF938C019C01369595
:1001B000279536952795ABE7B4E10E94C104AC01C1
:1001C000569547959A01ADECBCEC0E94C1049695FA
:1001D000879596958795969587959C01220F331F55
:1001E000880F991F880F991F880F991F820F931FDF
:1001F0009A01281B390BC901805D0E94A200980159
:10020000ADECBCEC0E94C104EC01D695C795D69527
:10021000C795D695C7959E010E94C104969587956E
:1002200096958795969587959C01220F331F880F89
:10023000991F880F991F880F991F820F931F9E0186
:10024000281B390BC901805D0E94A200CE01880FD6
:10025000991FCC0FDD1FCC0FDD1FCC0FDD1FC80F8A
:10026000D91FC8018C1B9D0B805D0E94A20083E2F8
:1002700091E00E94A9003FEF80E792E0315080407A
:100280009040E1F700C00000DF91CF911F910F91E6
:100290000895BC0180E090E00E94410320E030EC32
:1002A0004FE754E40E94A00220E030E044E353E42E
:1002B0000E941F0408958F929F92AF92BF92CF9297
:1002C000DF92EF92FF92BC0180E090E00E94410338
:1002D00020E030E040EA50E40E941F0420E030ECCF
:1002E0004FE754E40E94A0026B017C0120E030E45F
:1002F0004CE156E40E941F044B015C01A7019601EA
:1003000060E070E080EA90E40E9433029B01AC015F
:10031000C501B4010E94A00220E030E44CE156E4A3
:100320000E94A0020E94D7032CE23BEB44E859E371
:100330000E941F042FE03FEC4BE55BE30E94340278
:100340009B01AC0160E070E080E89FE30E94A002A6
:1003500023E333E948E853E40E943302FF90EF902F
:10036000DF90CF90BF90AF909F908F900895CF93E4
:10037000DF9300D000D0CDB7DEB70E9478000E9496
:1003800083000E948D0080E00E94BC009C838B83D0
:100390008B819C810E945B016B017C0181E091E07B
:1003A0000E94A900C701B6010E941203CB010E945E
:1003B000D10081E00E94BC009A83898389819A815F
:1003C0000E9449016B017C018FE091E00E94A9002D
:1003D000C701B6010E941203CB010E94D1008DE13A
:1003E00091E00E94A9002FEF83ED90E3215080401F
:1003F0009040E1F700C00000C6CF1F920F920FB6E9
:100400000F9211242F933F934F935F936F937F939A
:100410008F939F93AF93BF93EF93FF9380910001CE
:10042000811104C084EB8093000103C0815080934C
:10043000000185E291E00E94A9008091000190E016
:100440000E94D100FF91EF91BF91AF919F918F9149
:100450007F916F915F914F913F912F910F900FBEC0
:100460000F901F9018955058BB27AA270E944B0247
:100470000C9495030E94870338F00E948E0320F0AD
:1004800039F49F3F19F426F40C9484030EF4E0959C
:10049000E7FB0C947E03E92F0E94A60358F3BA17DA
:1004A000620773078407950720F079F4A6F50C948A
:1004B000C8030EF4E0950B2EBA2FA02D0B01B90145
:1004C00090010C01CA01A0011124FF27591B99F0CA
:1004D000593F50F4503E68F11A16F040A22F232FD6
:1004E000342F4427585FF3CF469537952795A79526
:1004F000F0405395C9F77EF41F16BA0B620B730BCD
:10050000840BBAF09150A1F0FF0FBB1F661F771F3D
:10051000881FC2F70EC0BA0F621F731F841F48F4F2
:10052000879577956795B795F7959E3F08F0B0CF7B
:100530009395880F08F09927EE0F97958795089562
:100540000E94B4020C9495030E948E0358F00E94FE
:10055000870340F029F45F3F29F00C947E0351118A
:100560000C94C9030C9484030E94A60368F3992396
:10057000B1F3552391F3951B550BBB27AA2762179F
:100580007307840738F09F5F5F4F220F331F441FAC
:10059000AA1FA9F335D00E2E3AF0E0E832D09150E0
:1005A0005040E695001CCAF72BD0FE2F29D0660FCD
:1005B000771F881FBB1F261737074807AB07B0E810
:1005C00009F0BB0B802DBF01FF2793585F4F3AF016
:1005D0009E3F510578F00C947E030C94C9035F3F55
:1005E000E4F3983ED4F3869577956795B795F7959C
:1005F0009F5FC9F7880F911D9695879597F9089584
:10060000E1E0660F771F881FBB1F6217730784071F
:10061000BA0720F0621B730B840BBA0BEE1F88F72E
:10062000E09508950E94AE0388F09F5798F0B92F87
:100630009927B751B0F0E1F0660F771F881F991F17
:100640001AF0BA95C9F714C0B13091F00E94C803EE
:10065000B1E008950C94C803672F782F8827B85FFE
:1006600039F0B93FCCF3869577956795B395D9F76F
:100670003EF490958095709561957F4F8F4F9F4F79
:100680000895E89409C097FB3EF490958095709585
:1006900061957F4F8F4F9F4F9923A9F0F92F96E9CE
:1006A000BB279395F695879577956795B795F11143
:1006B000F8CFFAF4BB0F11F460FF1BC06F5F7F4FE0
:1006C0008F4F9F4F16C0882311F096E911C07723F2
:1006D00021F09EE8872F762F05C0662371F096E8FB
:1006E000862F70E060E02AF09A95660F771F881FCA
:1006F000DAF7880F9695879597F9089597F99F6788
:1007000080E870E060E008959FEF80EC0895002499
:100710000A941616170618060906089500240A9466
:1007200012161306140605060895092E0394000CEC
:1007300011F4882352F0BB0F40F4BF2B11F460FF7B
:1007400004C06F5F7F4F8F4F9F4F089557FD9058A4
:10075000440F551F59F05F3F71F04795880F97FB85
:10076000991F61F09F3F79F087950895121613063F
:100770001406551FF2CF4695F1DF08C0161617066E
:100780001806991FF1CF86957105610508940895A3
:10079000E894BB2766277727CB0197F9089516F0D1
:1007A0000C948C040C94840368940C947E030E9433
:1007B000AE03A8F39923C1F3AEF3DF93CF931F9356
:1007C0000F93FF92C92FDD2788232AF02197660F08
:1007D000771F881FDAF720E030E040E85FEB9FE307
:1007E000883920F0803E38F021968F770E943402BD
:1007F000E8E6F0E004C00E943402E5E9F0E00E947F
:100800009A048B01BE01EC01FB2E6F57710975959F
:10081000771F880B990B0E94430328E132E741E3DD
:100820005FE30E943204AF2D9801AE01FF900F915B
:100830001F91CF91DF910E944B020C9495030E946F
:1008400032040C9495030E94870338F00E948E03B3
:1008500020F0952311F00C947E030C948403112452
:100860000C94C9030E94A60370F3959FC1F3950FE2
:1008700050E0551F629FF001729FBB27F00DB11D24
:10088000639FAA27F00DB11DAA1F649F6627B00DB4
:10089000A11D661F829F2227B00DA11D621F739F9D
:1008A000B00DA11D621F839FA00D611D221F749FAB
:1008B0003327A00D611D231F849F600D211D822FF2
:1008C000762F6A2F11249F5750409AF0F1F0882319
:1008D0004AF0EE0FFF1FBB1F661F771F881F915046
:1008E0005040A9F79E3F510580F00C947E030C9474
:1008F000C9035F3FE4F3983ED4F3869577956795F7
:10090000B795F795E7959F5FC1F7FE2B880F911D6F
:100910009695879597F908959F3F31F0915020F46F
:10092000879577956795B795880F911D96958795CB
:1009300097F90895DF93CF931F930F93FF92EF9250
:10094000DF927B018C01689406C0DA2EEF010E94D1
:100950003204FE01E894A591259135914591559178
:10096000A6F3EF010E944B02FE019701A801DA9461
:1009700069F7DF90EF90FF900F911F91CF91DF917A
:100980000895A29FB001B39FC001A39F700D811D68
:100990001124911DB29F700D811D1124911D089588
:0409A000F894FFCFF9
:1009A400B454656D70657261747572653A20005354
:1009B40065742074696D652061743A20002D2D2DB5
:1009C4002D2D2D0D0054696D65206C6566743A20DB
:0209D400000021
:00000001FF
