:100000000C9461000C947E000C947E000C947E0095
:100010000C94C7030C947E000C947E000C947E001C
:100020000C947E000C947E000C947E000C94410392
:100030000C947E000C947E000C947E000C947E0048
:100040000C947E000C947E000C947E000C947E0038
:100050000C947E000C947E000C947E000C947E0028
:100060000C947E000C947E0008000000BE9224498F
:10007000123EABAAAA2ABECDCCCC4C3E00000080DA
:10008000BEABAAAAAA3E00000000BF000000803F4D
:100090000000000000084178D3BB4387D1133D190D
:1000A0000E3CC3BD4282AD2B3E68EC8276BED98F3A
:1000B000E1A93E4C80EFFFBE01C4FF7F3F0000007E
:1000C000000011241FBECFEFD8E0DEBFCDBF11E08E
:1000D000A0E0B1E0E0E9FDE002C005900D92A6339A
:1000E000B107D9F721E0A6E3B1E001C01D92AD331D
:1000F000B207E1F70E9472020C94C6060C9400004D
:10010000ECE7F0E0808180648083EAE7F0E08081C2
:1001100087688083089588E09DE3909389008093A9
:100120008800E1E8F0E0808188608083AFE6B0E09D
:100130008C9182608C93808185608083089588B1E2
:10014000846088B985B1846085B9ECE6F0E080818F
:1001500084608083E8E6F0E0808182608083E9E665
:10016000F0E08081886080837894089582E48093B1
:10017000B00087E08093B1008DE08093B3000895D4
:100180009BB19F70282F207F922B9BB99BB19E7FA4
:100190009BB99BB192609BB935E03A95F1F70000AD
:1001A0009BB19D7F9BB9EFE1F3E03197F1F700C080
:1001B00000002BB1F0E18F9FC0011124922F9F709E
:1001C000892B8BB98BB182608BB935E03A95F1F709
:1001D00000008BB18D7F8BB98FE39FE10197F1F721
:1001E00000C0000008958FEF8AB98FE59AEE01975D
:1001F000F1F700C0000082E090E00E94C00088E2B9
:1002000090E00E94C0008CE090E00E94C00086E078
:1002100090E00E94C00081E090E00E94C0008FE367
:100220009FE10197F1F700C00000089581E00E946E
:10023000C0008FE39FE10197F1F700C0000080E864
:100240000E94C0000895FC0160E070E034C08BB1F2
:100250008F70907F982B9BB98BB181608BB98BB1DC
:1002600082608BB985E08A95F1F700008BB18D7FB4
:100270008BB98FE193E00197F1F700C000004BB11B
:100280009C9180E1989F90011124942F9F70292BBD
:100290002BB99BB192609BB995E09A95F1F700005C
:1002A0009BB19D7F9BB98FE39FE10197F1F700C060
:1002B00000006F5F7F4FDF01A60FB71F9C91911168
:1002C000C6CF0895CF93DF93EA01811108C0603152
:1002D00030F4862F8F7080680E94C00009C0813082
:1002E00039F4603128F4862F8F70806C0E94C00032
:1002F000CE010E942301DF91CF910895ECE7F0E059
:100300009081907F8F70892B8083EAE7F0E0808175
:100310008064808380917A0086FDFCCF8091780094
:10032000909179000895BC0180E090E00E9406055C
:1003300020E030EC4FE754E40E94650420E030E018
:1003400044E353E40E94E4050E94D704862F0895F5
:100350008F929F92AF92BF92CF92DF92EF92FF92D5
:10036000BC0180E090E00E94060520E030E040EA19
:1003700050E40E94E40520E030EC4FE754E40E9492
:1003800065046B017C0120E030E44CE156E40E94FE
:10039000E4054B015C01A701960160E070E080EA92
:1003A00090E40E94F8039B01AC01C501B4010E94D6
:1003B000650420E030E44CE156E40E9465040E94AC
:1003C0009C052CE23BEB44E859E30E94E4052FE056
:1003D0003FEC4BE55BE30E94F9039B01AC0160E05D
:1003E00070E080E89FE30E94650423E333E948E876
:1003F00053E40E94F8030E94D704862FFF90EF90E9
:10040000DF90CF90BF90AF909F908F90089583E042
:1004100090E016C028E024B92FEF33ED40E32150DF
:1004200030404040E1F700C0000014B82FEF39E63B
:1004300048E1215030404040E1F700C00000019702
:10044000181619063CF3089523B130E0082E02C0B7
:10045000359527950A94E2F720FD12C0EFE9FFE0F9
:100460003197F1F700C0000023B130E0A90102C0CC
:10047000559547958A95E2F740FD04C081E00895BF
:1004800080E0089580E008950E942402882341F0CE
:1004900080913801811107C081E08093380108956F
:1004A00010923801089508958BB188608BB98BB193
:1004B0008B7F8BB985B18E7F85B9089585B18160B9
:1004C00085B98BB18B7F8BB98BB1877F8BB9089541
:1004D0008BB184608BB98BB1877F8BB985B18E7FEF
:1004E00085B90895CF93DF93CDB7DEB762970FB686
:1004F000F894DEBF0FBECDBF0E9480000E948B002B
:100500000E949F000E94F3000E94B60084B18160A7
:1005100084B980E091E00E9423012FEF8DE399E4FC
:10052000215080409040E1F700C000000E945E0230
:100530002FEF83ED90E3215080409040E1F700C021
:1005400000000E9454022FEF83ED90E32150804081
:100550009040E1F700C000000E9468022FEF83ED99
:1005600090E3215080409040E1F700C000000E94DD
:10057000160165C0F89481E00E947E019A8B898BF8
:1005800089899A890E94930180933A0180E00E94B0
:100590007E0190933C0180933B0180913B019091BF
:1005A0003C010E94A801809339012FEF83EC99E070
:1005B000215080409040E1F700C0000080913A0156
:1005C0004AE050E0BE01675F7F4F90E00E948606E0
:1005D00080E80E94C000CE0109960E9423012FEFFF
:1005E00083EC99E0215080409040E1F700C000008A
:1005F0000E941601809139014AE050E0BE016F5F10
:100600007F4F90E00E94860680EC0E94C0008DE043
:1006100091E00E942301AE014F5F5F4F6EE082E0E8
:100620000E94620182E00E94440280933601882386
:1006300031F081E0809337010E945E0278948091CE
:100640003701811105C080913601882309F492CFCA
:1006500080E00E947E0190933C0180933B01809159
:100660003B0190913C010E94A801809339012FEF3A
:1006700089E698E1215080409040E1F700C00000F9
:10068000DECF1F920F920FB60F9211242F933F933C
:100690004F935F936F937F938F939F93AF93BF938A
:1006A000EF93FF93CF93DF93CDB7DEB76097DEBFB5
:1006B000CDBF80913A01815080933A0181111AC0D7
:1006C0000E9416010E9468028AE191E00E942301C3
:1006D0000E9407022FEF8BE792E921508040904063
:1006E000E1F700C000000E9416011092370110923D
:1006F000360134C00E94160180913A014AE050E070
:10070000BE01675F7F4F90E00E94860680E80E94EE
:10071000C000CE0109960E9423012FEF81EE94E0E4
:10072000215080409040E1F700C0000080913901E5
:100730004AE050E0BE016F5F7F4F90E00E94860666
:1007400080EC0E94C00083E291E00E942301AE0190
:100750004F5F5F4F6EE082E00E94620160960FB6CD
:10076000F894DEBF0FBECDBFDF91CF91FF91EF9127
:10077000BF91AF919F918F917F916F915F914F91B9
:100780003F912F910F900FBE0F901F9018951F92C1
:100790000F920FB60F9211242F933F934F935F93B5
:1007A0006F937F938F939F93AF93BF93EF93FF9339
:1007B0000E9454020E9416018FE291E00E942301E0
:1007C00082E00E9444028823D9F30E945E02FF91D6
:1007D000EF91BF91AF919F918F917F916F915F91B9
:1007E0004F913F912F910F900FBE0F901F90189532
:1007F0005058BB27AA270E9410040C945A050E9447
:100800004C0538F00E94530520F039F49F3F19F44D
:1008100026F40C9449050EF4E095E7FB0C9443058F
:10082000E92F0E946B0558F3BA1762077307840714
:10083000950720F079F4A6F50C948D050EF4E0955B
:100840000B2EBA2FA02D0B01B90190010C01CA018A
:10085000A0011124FF27591B99F0593F50F4503E35
:1008600068F11A16F040A22F232F342F4427585F27
:10087000F3CF469537952795A795F0405395C9F73F
:100880007EF41F16BA0B620B730B840BBAF09150F7
:10089000A1F0FF0FBB1F661F771F881FC2F70EC096
:1008A000BA0F621F731F841F48F487957795679569
:1008B000B795F7959E3F08F0B0CF9395880F08F055
:1008C0009927EE0F9795879508950E9479040C94C7
:1008D0005A050E94530558F00E944C0540F029F437
:1008E0005F3F29F00C94430551110C948E050C9434
:1008F00049050E946B0568F39923B1F3552391F3E1
:10090000951B550BBB27AA2762177307840738F07E
:100910009F5F5F4F220F331F441FAA1FA9F335D0DB
:100920000E2E3AF0E0E832D091505040E695001C8F
:10093000CAF72BD0FE2F29D0660F771F881FBB1F49
:10094000261737074807AB07B0E809F0BB0B802D27
:10095000BF01FF2793585F4F3AF09E3F510578F053
:100960000C9443050C948E055F3FE4F3983ED4F35A
:10097000869577956795B795F7959F5FC9F7880F27
:10098000911D9695879597F90895E1E0660F771F79
:10099000881FBB1F621773078407BA0720F0621B0A
:1009A000730B840BBA0BEE1F88F7E09508950E9435
:1009B000730588F09F5798F0B92F9927B751B0F079
:1009C000E1F0660F771F881F991F1AF0BA95C9F7D3
:1009D00014C0B13091F00E948D05B1E008950C94DF
:1009E0008D05672F782F8827B85F39F0B93FCCF392
:1009F000869577956795B395D9F73EF49095809550
:100A0000709561957F4F8F4F9F4F0895E89409C06F
:100A100097FB3EF490958095709561957F4F8F4F31
:100A20009F4F9923A9F0F92F96E9BB279395F69547
:100A3000879577956795B795F111F8CFFAF4BB0FC5
:100A400011F460FF1BC06F5F7F4F8F4F9F4F16C029
:100A5000882311F096E911C0772321F09EE8872FB3
:100A6000762F05C0662371F096E8862F70E060E06F
:100A70002AF09A95660F771F881FDAF7880F9695E8
:100A8000879597F9089597F99F6780E870E060E08F
:100A900008959FEF80EC089500240A941616170617
:100AA00018060906089500240A941216130614065F
:100AB00005060895092E0394000C11F4882352F0C2
:100AC000BB0F40F4BF2B11F460FF04C06F5F7F4F7A
:100AD0008F4F9F4F089557FD9058440F551F59F061
:100AE0005F3F71F04795880F97FB991F61F09F3F1B
:100AF00079F087950895121613061406551FF2CF44
:100B00004695F1DF08C0161617061806991FF1CF93
:100B100086957105610508940895E894BB276627BA
:100B20007727CB0197F9089516F00C9451060C9491
:100B3000490568940C9443050E947305A8F3992312
:100B4000C1F3AEF3DF93CF931F930F93FF92C92F9F
:100B5000DD2788232AF02197660F771F881FDAF791
:100B600020E030E040E85FEB9FE3883920F0803EF2
:100B700038F021968F770E94F903E8E6F0E004C090
:100B80000E94F903E5E9F0E00E945F068B01BE01D7
:100B9000EC01FB2E6F5771097595771F880B990B28
:100BA0000E94080528E132E741E35FE30E94F70570
:100BB000AF2D9801AE01FF900F911F91CF91DF9162
:100BC0000E9410040C945A050E94F7050C945A05D3
:100BD0000E944C0538F00E94530520F0952311F037
:100BE0000C9443050C94490511240C948E050E9425
:100BF0006B0570F3959FC1F3950F50E0551F629FF1
:100C0000F001729FBB27F00DB11D639FAA27F00D65
:100C1000B11DAA1F649F6627B00DA11D661F829F8C
:100C20002227B00DA11D621F739FB00DA11D621F71
:100C3000839FA00D611D221F749F3327A00D611D8E
:100C4000231F849F600D211D822F762F6A2F112470
:100C50009F5750409AF0F1F088234AF0EE0FFF1FA3
:100C6000BB1F661F771F881F91505040A9F79E3FFA
:100C7000510580F00C9443050C948E055F3FE4F31E
:100C8000983ED4F3869577956795B795F795E79550
:100C90009F5FC1F7FE2B880F911D9695879597F959
:100CA00008959F3F31F0915020F48795779567958F
:100CB000B795880F911D9695879597F90895DF93BD
:100CC000CF931F930F93FF92EF92DF927B018C01E2
:100CD000689406C0DA2EEF010E94F705FE01E89441
:100CE000A5912591359145915591A6F3EF010E946B
:100CF0001004FE019701A801DA9469F7DF90EF90E4
:100D0000FF900F911F91CF91DF91089545325105CA
:100D100020F4423010F00C949106FB011082CB01BC
:100D20000895BB274A3031F4992322F4BDE290950F
:100D300081959F4F0C949D06BB27FB015527AA2741
:100D4000880F991FAA1FA41710F0A41B8395505158
:100D5000B9F7A05DAA3308F0A95DA193009779F7D0
:100D6000B111B1931192CB010C94B606DC01FC01D8
:100D7000672F71917723E1F7329704C07C916D93CF
:100D800070836291AE17BF07C8F30895F894FFCF40
:100D900053657420706F746D657465720054656D71
:100DA00070657261747572653A0046696E69736840
:100DB00065640054656D706572617475723A0050B7
:060DC0006175736521005E
:00000001FF
